:020000040800F2
:1000000000000220111000081D0E0008250E000837
:100010002D0E0008350E00083D0E000800000000FF
:10002000000000000000000000000000450E000875
:10003000530E000800000000610E00086F0E00085B
:1000400061100008611000086110000861100008CC
:1000500061100008611000086110000861100008BC
:1000600061100008611000086110000861100008AC
:10007000611000086110000861100008611000089C
:10008000611000086110000861100008611000088C
:10009000611000086110000861100008611000087C
:1000A000611000086110000861100008611000086C
:1000B000611000086110000861100008611000085C
:1000C000611000086110000861100008611000084C
:1000D00061100008611000087D0E00086110000822
:1000E000611000086110000861100008611000082C
:1000F000611000086110000861100008611000081C
:10010000611000086110000861100008611000080B
:1001100061100008611000086110000861100008FB
:1001200061100008611000086110000861100008EB
:1001300061100008611000086110000861100008DB
:10014000611000086110000861100008910E00089D
:1001500061100008611000086110000861100008BB
:1001600061100008611000086110000861100008AB
:100170006110000861100008611000080000000014
:08018000611000086110000885
:1001880010B5054C237833B9044B13B10448AFF3C9
:1001980000800123237010BD5801002000000000DA
:1001A800989D000808B5034B1BB103490348AFF3FA
:1001B800008008BD000000005C010020989D000838
:1001C80053B94AB9002908BF00281CBF4FF0FF31B6
:1001D8004FF0FF3000F06AB9ADF1080C6DE904CEBC
:1001E80000F006F8DDF804E0DDE9022304B070470A
:1001F8002DE9F047089D0C46002B4ED194468C45BE
:100208008646B2FA82F262D94AB1C2F1200391401D
:1002180020FA03F30CFA02FC194300FA02FE4FEA33
:100228001C471FFA8CF6B1FBF7F44FEA1E4307FB95
:10023800141143EA014304FB06F199420AD91CEB65
:10024800030304F1FF3080F01281994240F20F81DC
:10025800023C6344591A1FFA8EF3B1FBF7F007FB0F
:10026800101143EA014300FB06F69E420AD91CEB33
:10027800030300F1FF3180F0FC809E4240F2F980D8
:10028800634402389B1B40EA044000211DB1D3405F
:100298000022C5E90032BDE8F0878B4205D90DB1CF
:1002A800C5E9000100210846F5E7B3FA83F1002902
:1002B80046D1A34202D39042C0F0F080861A64EB84
:1002C80003030120002DE6D0C5E90063E3E7002A17
:1002D80040F09080A1EB0C044FEA1C481FFA8CF701
:1002E8000121B4FBF8F64FEA1E4308FB164443EA23
:1002F800044307FB06F0984208D91CEB030306F1F8
:10030800FF3402D2984200F2CD8026461C1A1FFA0A
:100318008EF3B4FBF8F008FB104443EA044300FBF7
:1003280007F79F4208D91CEB030300F1FF3402D200
:100338009F4200F2B0802046DB1B40EA0640A5E75A
:10034800C1F120068B4022FA06F71F4320FA06FC6B
:1003580004FA01F343EA0C03F44000FA01F8380CFC
:100368004FEA1349B4FBF0FE1FFA87FC00FB1E445A
:1003780049EA04440EFB0CF9A14502FA01F20AD934
:100388003C190EF1FF3A80F08480A14540F281804B
:10039800AEF1020E3C44A4EB09041FFA83F9B4FB46
:1003A800F0F300FB134449EA044403FB0CFCA445A6
:1003B80007D93C1903F1FF3067D2A44565D9023B40
:1003C8003C4443EA0E40A0FB0293A4EB0C049C427D
:1003D800CE469C4651D34ED055B1B8EB0E0364EBD4
:1003E8000C0404FA06F6CB401E43CC40C5E9006471
:1003F800002150E7C2F1200320FA03F10CFA02FCB5
:1004080024FA03F394400C434FEA1C4800FA02FE16
:100418001FFA8CF7B3FBF8F008FB1031230C43EA02
:10042800014300FB07F1994208D91CEB030300F1D3
:10043800FF362CD299422AD9023863445B1AA4B2F7
:10044800B3FBF8F108FB113344EA034401FB07F35B
:10045800A34208D91CEB040401F1FF3613D2A342CE
:1004680011D902396444E41A41EA004139E70446E3
:10047800F0E6084606E7C845AED2B9EB020E63EBD4
:10048800070C0138A8E73146EDE7034699E73046FF
:10049800D4E7D6467FE7634402384DE7064623464D
:1004A80008460FE7023E634430E700BF704700BFCD
:1004B80080B500AF00F0D2FD00F034F800F002FA89
:1004C80000F09AF800F05EF908F014FA00F0D0F99C
:1004D80000210F4803F044F904210D4803F040F9C6
:1004E80008210B4803F03CF90C21094803F038F9BE
:1004F8000021084803F034F9074B1B781A46074BCC
:10050800134401221946064803F0B6FF00BFFDE771
:100518007C010020C4010020790100207401002022
:100528000C02002080B594B000AF07F12003302200
:100538000021184609F078F907F10C0300221A6027
:100548005A609A60DA601A610023BB60284B1B6C02
:10055800274A43F080531364254B1B6C03F08053E8
:10056800BB60BB6800237B60224B1B68214A43F4B5
:10057800804313601F4B1B6803F480437B607B68D8
:1005880001233B624FF480337B620223BB634FF449
:100598008003FB6304233B6448237B640223BB641E
:1005A8000323FB6407F12003184602F099FB034676
:1005B800002B01D000F0D6F90F23FB6002233B612A
:1005C80000237B614FF48053BB614FF48053FB6180
:1005D80007F10C030221184602F0FAFD0346002B2E
:1005E80001D000F0BFF900BF5037BD4680BD00BF45
:1005F800003802400070004080B596B000AF07F1A7
:10060800480300221A605A609A60DA6007F14003D2
:1006180000221A605A6007F1240300221A605A6007
:100628009A60DA601A615A619A613B1D20220021A2
:10063800184609F0F9F8514B514A1A604F4B40F2ED
:100648009F525A604D4B00229A604C4B4FF47A727D
:10065800DA604A4B00221A61484B00225A61474B24
:1006680000229A61454802F0D3FF0346002B01D0CF
:1006780000F078F94FF48053BB6407F1480319463A
:100688003E4803F0F7F90346002B01D000F06AF961
:100698003A4803F00CF80346002B01D000F062F949
:1006A80000233B6400237B6407F140031946334869
:1006B80003F0C4FD0346002B01D000F053F960237A
:1006C8007B620023BB620023FB6200233B630023A1
:1006D8007B630023BB630023FB6307F12403002231
:1006E8001946264803F004F90346002B01D000F010
:1006F80039F907F1240304221946204803F0F8F8D1
:100708000346002B01D000F02DF907F1240308223D
:1007180019461A4803F0ECF80346002B01D000F004
:1007280021F907F124030C221946144803F0E0F8D4
:100738000346002B01D000F015F900237B6000234D
:10074800BB600023FB6000233B6100237B614FF407
:100758000053BB6100233B623B1D1946074803F069
:10076800E9FD0346002B01D000F0FCF8034800F037
:10077800A1FA00BF5837BD4680BD00BF7C010020EC
:100788000000014080B58EB000AF07F128030022B9
:100798001A605A609A60DA6007F1200300221A6032
:1007A8005A603B1D00221A605A609A60DA601A612A
:1007B8005A619A612D4B4FF080421A602B4B4FF4CF
:1007C800B4625A60294B00229A60284B4FF47A721F
:1007D800DA60264B00221A61244B00229A612348D2
:1007E80002F016FF0346002B01D000F0BBF84FF4CF
:1007F8008053BB6207F1280319461C4803F03AF9F5
:100808000346002B01D000F0ADF8184802F04FFF66
:100818000346002B01D000F0A5F800233B6200231B
:100828007B6207F120031946104803F007FD0346D1
:10083800002B01D000F096F860237B600023BB609A
:100848000023FB6000237B613B1D002219460748FB
:1008580003F04EF80346002B01D000F083F803485C
:1008680000F028FA00BF3837BD4680BDC40100201B
:1008780080B500AF114B124A1A60104B4FF4165254
:100888005A600E4B00229A600C4B0022DA600B4B28
:1008980000221A61094B0C225A61084B00229A6106
:1008A800064B0022DA61054803F096FD0346002B4B
:1008B80001D000F057F800BF80BD00BF0C02002037
:1008C8000044004080B588B000AF07F10C03002257
:1008D8001A605A609A60DA601A610023BB601F4B85
:1008E8001B6B1E4A43F0800313631C4B1B6B03F006
:1008F8008003BB60BB6800237B60184B1B6B174AE7
:1009080043F001031363154B1B6B03F001037B607A
:100918007B6800233B60114B1B6B104A43F01003AC
:1009280013630E4B1B6B03F010033B603B68002204
:1009380040210B4800F068FF4023FB6001233B6126
:1009480000237B610023BB6107F10C0319460448AF
:1009580000F0BEFD00BF2037BD4680BD0038024014
:100968000000024080B400AF72B600BF00BFFDE7D0
:1009780080B584B000AF78607B68002B05D116483D
:1009880008F072FE4FF0FF3321E07B681B78732B71
:1009980018D1124808F068FE0023BB607B68023358
:1009A8001B783B727B6803331B787B727B6804334C
:1009B8001B78BB7207F10803184608F0B5FCF8600D
:1009C800FB6804E0064808F04FFE4FF0FF33184676
:1009D8001037BD4680BD00BFB09D0008C09D00080F
:1009E800DC9D000880B58CB000AF78607B681B6820
:1009F8007A4A934240F0ED80794B1B780133DAB2A2
:100A0800774B1A70764B1B78042B40F2D880754BC5
:100A18001B78732B24D1734B5B78362B20D171480C
:100A2800FFF7A6FFF862FB6A002BC0F2BA80FB6AE8
:100A380007EE903AB8EEE77ADFED6B6AC7EE267AF2
:100A4800B3EE097A77EE877AC7ED0A7AD7ED0A7A94
:100A5800FDEEE77A654B1B6817EE902A5A63A0E013
:100A6800604B1B78732B24D15E4B5B78352B20D1E0
:100A78005C48FFF77DFF78627B6A002BC0F29380A9
:100A88007B6A07EE903AB8EEE77ADFED576AC7EE71
:100A9800267AB3EE097A77EE877AC7ED087AD7ED2A
:100AA800087AFDEEE77A514B1B6817EE902A9A6395
:100AB80079E04C4B1B78732B23D14A4B5B78342B52
:100AC8001FD14848FFF754FFF861FB69002B6CDB26
:100AD800FB6907EE903AB8EEE77ADFED436AC7EEB6
:100AE800267AB3EE097A77EE877AC7ED067AD7EDDC
:100AF800067AFDEEE77A3D4B1B6817EE902ADA631B
:100B080053E0384B1B78732B23D1364B5B78332B50
:100B18001FD13448FFF72CFF78617B69002B46DB37
:100B28007B6907EE903AB8EEE77ADFED2F6AC7EEF9
:100B3800267AB3EE097A77EE877AC7ED047AD7ED8D
:100B4800047AFDEEE77A294B1B6817EE902A1A649F
:100B58002DE0244B1B78732B2AD1224B5B78322B48
:100B680026D12048FFF704FFF860FB68002B1FDB45
:100B7800FB6807EE903AB8EEE77ADFED1B6AC7EE3E
:100B8800267AB3EE097A77EE877AC7ED027AD7ED3F
:100B9800027AFDEEE77A164B1B6817EE902A5A6325
:100BA80006E000BF04E000BF02E000BF00E000BFB5
:100BB80005210C4807F05CFF094B00221A70084B0E
:100BC8001B781A46074B134401221946094803F0BB
:100BD80053FC00BF3037BD4680BD00BF0044004015
:100BE80079010020740100206666E63F7C01002040
:100BF800C40100200C02002080B483B000AF0023A1
:100C08007B60104B5B6C0F4A43F4804353640D4B7D
:100C18005B6C03F480437B607B6800233B60094B7B
:100C28001B6C084A43F080531364064B1B6C03F09B
:100C380080533B603B6800BF0C37BD465DF8047BC2
:100C4800704700BF0038024080B485B000AF7860BC
:100C58007B681B68154A93420ED10023FB60144B36
:100C68005B6C134A43F001035364114B5B6C03F054
:100C78000103FB60FB6812E07B681B68B3F1804FDF
:100C88000DD10023BB600A4B1B6C094A43F00103DA
:100C98001364074B1B6C03F00103BB60BB6800BF08
:100CA8001437BD465DF8047B704700BF0000014063
:100CB8000038024080B58AB000AF786007F11403AD
:100CC80000221A605A609A60DA601A617B681B68B1
:100CD800244A93421FD100233B61234B1B6B224ABA
:100CE80043F010031363204B1B6B03F010033B61AD
:100CF8003B694FF4D4437B610223BB610023FB6152
:100D080000233B6201237B6207F11403194617484D
:100D180000F0DEFB22E07B681B68B3F1804F1DD139
:100D28000023FB60104B1B6B0F4A43F00103136356
:100D38000D4B1B6B03F00103FB60FB6801237B6118
:100D48000223BB610023FB6100233B6201237B621A
:100D580007F114031946064800F0BAFB00BF28370C
:100D6800BD4680BD0000014000380240001002402E
:100D78000000024080B58AB000AF786007F1140324
:100D880000221A605A609A60DA601A617B681B68F0
:100D98001D4A934233D100233B611C4B1B6C1B4AF9
:100DA80043F400331364194B1B6C03F400333B61A9
:100DB8003B690023FB60154B1B6B144A43F001038E
:100DC8001363124B1B6B03F00103FB60FB680C23DE
:100DD8007B610223BB610023FB6103233B62072382
:100DE8007B6207F114031946094800F071FB0022E1
:100DF8000021262000F0A3FA262000F0BCFA00BF4C
:100E08002837BD4680BD00BF00440040003802407E
:100E18000000024080B400AF00BFFDE780B400AF1F
:100E280000BFFDE780B400AF00BFFDE780B400AFAE
:100E380000BFFDE780B400AF00BFFDE780B400AF9E
:100E480000BFBD465DF8047B704780B400AF00BFAB
:100E5800BD465DF8047B704780B400AF00BFBD4657
:100E68005DF8047B704780B500AF00F049F900BF1A
:100E780080BD000080B500AF024803F023FB00BF2F
:100E880080BD00BF0C02002080B500AF024800F012
:100E980018FE00BF80BD00BF3C17002080B586B09B
:100EA80000AFF860B9607A6000237B610AE0AFF3B5
:100EB80000800146BB685A1CBA60CAB21A707B69C6
:100EC80001337B617A697B689A42F0DB7B6818465C
:100ED8001837BD4680BD80B586B000AFF860B960F0
:100EE8007A6000237B6109E0BB685A1CBA601B78F2
:100EF8001846AFF300807B6901337B617A697B68B0
:100F08009A42F1DB7B6818461837BD4680BD80B42D
:100F180083B000AF78604FF0FF3318460C37BD46FA
:100F28005DF8047B704780B483B000AF78603960A7
:100F38003B684FF400525A60002318460C37BD46F0
:100F48005DF8047B704780B483B000AF78600123FC
:100F580018460C37BD465DF8047B704780B485B0F1
:100F680000AFF860B9607A60002318461437BD46B0
:100F78005DF8047B7047000080B586B000AF7860EC
:100F8800144A154BD31A7B617B693B61134B1B6871
:100F9800002B02D1114B124A1A60104B1A687B6859
:100FA80013443A699A4207D208F08CFC03460C2293
:100FB8001A604FF0FF3309E0084B1B68FB60074BD2
:100FC8001A687B681344054A1360FB68184618378B
:100FD800BD4680BD0000022000040000540200202D
:100FE800901F002080B400AF064BD3F88830054A24
:100FF80043F47003C2F8883000BFBD465DF8047B37
:10100800704700BF00ED00E0DFF834D0FFF7EAFFDB
:101018000C480D490D4A002302E0D458C45004334B
:10102800C4188C42F9D30A4A0A4C002301E0136021
:101038000432A242FBD308F04BFCFFF739FA7047A1
:10104800000002200000002058010020749F0008C2
:10105800580100208C1F0020FEE7000080B500AF7B
:101068000E4B1B680D4A43F4007313600B4B1B684F
:101078000A4A43F480631360084B1B68074A43F429
:1010880080731360032000F04FF90F2000F008F878
:10109800FFF7B2FD0023184680BD00BF003C0240A8
:1010A80080B582B000AF7860124B1A68124B1B787B
:1010B80019464FF47A73B3FBF1F3B2FBF3F3184616
:1010C80000F067F90346002B01D001230EE07B688E
:1010D8000F2B0AD8002279684FF0FF3000F02FF963
:1010E800064A7B681360002300E00123184608378E
:1010F800BD4680BD0000002008000020040000203C
:1011080080B400AF064B1B781A46064B1B68134485
:10111800044A136000BFBD465DF8047B704700BFFA
:10112800080000205802002080B400AF034B1B6861
:101138001846BD465DF8047B704700BF5802002082
:1011480080B584B000AF7860FFF7EEFFB8607B68C9
:10115800FB60FB68B3F1FF3F05D00A4B1B781A46CA
:10116800FB681344FB6000BFFFF7DEFF0246BB6865
:10117800D31AFA689A42F7D800BF00BF1037BD46A5
:1011880080BD00BF0800002080B485B000AF786043
:101198007B6803F00703FB600C4BDB68BB60BA6835
:1011A8004FF6FF031340BB60FB681A02BB6813438A
:1011B80043F0BF6343F40033BB60044ABB68D360A9
:1011C80000BF1437BD465DF8047B704700ED00E0B2
:1011D80080B400AF044BDB681B0A03F00703184612
:1011E800BD465DF8047B704700ED00E080B483B035
:1011F80000AF0346FB7197F90730002B0BDBFB7937
:1012080003F01F02074997F907305B09012000FA2C
:1012180002F241F8232000BF0C37BD465DF8047B7D
:10122800704700BF00E100E080B483B000AF034620
:101238003960FB7197F90730002B0ADB3B68DAB29B
:101248000C4997F907301201D2B20B4483F80023F6
:101258000AE03B68DAB20849FB7903F00F03043B64
:101268001201D2B20B441A7600BF0C37BD465DF8A6
:10127800047B704700E100E000ED00E080B489B035
:1012880000AFF860B9607A60FB6803F00703FB61A0
:10129800FB69C3F10703042B28BF0423BB61FB6967
:1012A8000433062B02D9FB69033B00E000237B6172
:1012B8004FF0FF32BB6902FA03F3DA43BB681A4006
:1012C8007B699A404FF0FF317B6901FA03F3D943F8
:1012D8007B680B40134318462437BD465DF8047BF2
:1012E8007047000080B582B000AF78607B68013B32
:1012F800B3F1807F01D301230FE00A4A7B68013BE9
:1013080053600F214FF0FF30FFF78EFF054B00228F
:101318009A60044B07221A60002318460837BD4616
:1013280080BD00BF10E000E080B582B000AF7860FB
:101338007868FFF729FF00BF0837BD4680BD80B534
:1013480086B000AF0346B9607A60FB7300237B6107
:10135800FFF73EFF78617A68B9687869FFF78EFF12
:10136800024697F90F3011461846FFF75DFF00BF98
:101378001837BD4680BD80B582B000AF0346FB710B
:1013880097F907301846FFF731FF00BF0837BD4609
:1013980080BD80B582B000AF78607868FFF7A2FFA3
:1013A800034618460837BD4680BD80B584B000AFF7
:1013B80078607B689B6DFB60FFF7B6FEB8607B6862
:1013C80093F83530DBB2022B08D07B6880225A654F
:1013D8007B68002283F83420012352E07B681B6875
:1013E8001A687B681B6822F016021A607B681B6803
:1013F8005A697B681B6822F080025A617B681B6C03
:10140800002B03D17B689B6C002B07D07B681B6883
:101418001A687B681B6822F008021A607B681B68E0
:101428001A687B681B6822F001021A6013E0FFF754
:101438007BFE0246BB68D31A052B0CD97B68202299
:101448005A657B68032283F835207B68002283F87D
:101458003420032315E07B681B681B6803F0010335
:10146800002BE4D17B68DB6D3F229A40FB689A60D1
:101478007B68012283F835207B68002283F83420BA
:10148800002318461037BD4680BD80B483B000AF36
:1014980078607B6893F83530DBB2022B04D07B6828
:1014A80080225A6501230CE07B68052283F83520E9
:1014B8007B681B681A687B681B6822F001021A6047
:1014C800002318460C37BD465DF8047B70470000C2
:1014D80080B489B000AF7860396000237B61002355
:1014E8003B610023BB610023FB616BE10122FB69C7
:1014F80002FA03F37B613B681B687A6913403B611E
:101508003A697B699A4240F05A813B685B6803F00C
:101518000303012B05D03B685B6803F00303022B30
:1015280030D17B689B68BB61FB695B00032202FAD0
:1015380003F3DB43BA691340BB613B68DA68FB69B4
:101548005B0002FA03F3BA691343BB617B68BA69AB
:101558009A607B685B68BB610122FB6902FA03F34E
:10156800DB43BA691340BB613B685B681B0903F046
:101578000102FB6902FA03F3BA691343BB617B6892
:10158800BA695A603B685B6803F00303032B17D002
:101598007B68DB68BB61FB695B00032202FA03F32B
:1015A800DB43BA691340BB613B689A68FB695B001F
:1015B80002FA03F3BA691343BB617B68BA69DA605C
:1015C8003B685B6803F00303022B23D1FB69DA084D
:1015D8007B68083253F82230BB61FB6903F00703CC
:1015E8009B000F2202FA03F3DB43BA691340BB6185
:1015F8003B681A69FB6903F007039B0002FA03F3CF
:10160800BA691343BB61FB69DA087B680832B969B8
:1016180043F822107B681B68BB61FB695B000322EF
:1016280002FA03F3DB43BA691340BB613B685B68AA
:1016380003F00302FB695B0002FA03F3BA69134380
:10164800BB617B68BA691A603B685B6803F4403326
:10165800002B00F0B4800023FB60604B5B6C5F4A9A
:1016680043F4804353645D4B5B6C03F48043FB603D
:10167800FB685B4AFB699B08023352F82330BB6165
:10168800FB6903F003039B000F2202FA03F3DB4319
:10169800BA691340BB617B68524A93422BD07B687E
:1016A800514A934225D07B68504A93421FD07B68A9
:1016B8004F4A934219D07B684E4A934213D07B68B5
:1016C8004D4A93420DD07B684C4A934207D07B68C1
:1016D8004B4A934201D107230EE008230CE006236E
:1016E8000AE0052308E0042306E0032304E00223BC
:1016F80002E0012300E00023FA6902F003029200ED
:101708009340BA691343BB613549FB699B080233AF
:10171800BA6941F823203B4B9B68BB613B69DB43BB
:10172800BA691340BB613B685B6803F48013002B04
:1017380003D0BA693B691343BB61324ABB69936002
:10174800304BDB68BB613B69DB43BA691340BB6163
:101758003B685B6803F40013002B03D0BA693B694C
:101768001343BB61274ABB69D360264B5B68BB61E7
:101778003B69DB43BA691340BB613B685B6803F4B0
:101788000033002B03D0BA693B691343BB611D4A80
:10179800BB6953601B4B1B68BB613B69DB43BA6980
:1017A8001340BB613B685B6803F48033002B03D0B4
:1017B800BA693B691343BB61124ABB691360FB6991
:1017C8000133FB61FB690F2B7FF690AE00BF00BFB2
:1017D8002437BD465DF8047B704700BF00380240DF
:1017E80000380140000002400004024000080240A6
:1017F800000C024000100240001402400018024091
:10180800001C0240003C014080B483B000AF786007
:101818000B467B8013467B707B78002B03D07A883D
:101828007B689A6103E07B881A047B689A6100BF31
:101838000C37BD465DF8047B704780B586B002AFB3
:1018480078607B68002B01D1012301E17B681B686C
:10185800BB607B6893F89534DBB2002B06D17B68BC
:10186800002283F89424786807F04AFA7B680322F8
:1018780083F89524BB68B3F1A04F02D17B6800229E
:101888009A717B681B68184603F031FE7B681868FC
:101898007B681A7C8DF8002004330ECB03F010FD12
:1018A8000346002B05D07B68022283F89524012388
:1018B800CEE07B681B680021184603F029FE03462A
:1018C800002B05D07B68022283F895240123BFE012
:1018D8000023FB734AE0FA7B79681346DB00134464
:1018E8009B000B44153301221A70FA7B7968134662
:1018F800DB0013449B000B441433FA7B1A70FA7B09
:10190800FB7B98B279681346DB0013449B000B44B9
:101918002E3302461A80FA7B79681346DB0013449B
:101928009B000B44183300221A70FA7B796813461F
:10193800DB0013449B000B441C3300221A60FA7B23
:1019480079681346DB0013449B000B4420330022C4
:101958001A60FA7B79681346DB0013449B000B443A
:10196800243300221A60FB7B0133FB737B681B79ED
:10197800FA7B9A42AFD30023FB7344E0FA7B796881
:101988001346DB0013449B000B4403F2552300224B
:101998001A70FA7B79681346DB0013449B000B44EA
:1019A80003F51573FA7B1A70FA7B79681346DB0026
:1019B80013449B000B4403F5167300221A70FA7B3C
:1019C80079681346DB0013449B000B4403F5177337
:1019D80000221A60FA7B79681346DB0013449B00E7
:1019E8000B4403F5187300221A60FA7B79681346D2
:1019F800DB0013449B000B4403F5197300221A60A3
:101A0800FB7B0133FB737B681B79FA7B9A42B5D366
:101A18007B6818687B681A7C8DF8002004330ECB2D
:101A280003F0C2FD0346002B05D07B68022283F831
:101A3800952401230CE07B6800225A747B680122FC
:101A480083F895247B681B68184604F00CFE002375
:101A580018461037BD4680BD80B584B000AF7860A9
:101A68007B681B68FB607B6893F89434012B01D179
:101A7800022322E07B68012283F89424FB68DB6858
:101A880003F04003002B09D07B685B7B012B05D159
:101A9800FB689B6B43F48032FB689A637B681B6826
:101AA800184603F013FD7B681B68184604F0BAFD5E
:101AB8007B68002283F89424002318461037BD461B
:101AC80080BD90B58DB000AF78607B681B683B62C5
:101AD8003B6AFB617B681B68184604F078FE034686
:101AE800002B40F08C847B681B68184604F0DCFDF2
:101AF8000346002B00F08284FB6903F500639B68B2
:101B08001B0AC3F30D027B68C3F8D4247B681B68E7
:101B1800184604F0C9FD034603F00203022B07D15F
:101B28007B681B685A697B681B6802F002025A616D
:101B38007B681B68184604F0B7FD034603F01003E2
:101B4800102B61D17B681B689A697B681B6822F03F
:101B580010029A613B6A1B6ABB61BB6903F00F0202
:101B68001346DB0013449B0003F514737A6813448F
:101B780004337B61BB695B0C03F00F03022B24D198
:101B8800BA6947F6F0731340002B35D07B69D968E2
:101B9800BB691B099BB2C3F30A039BB21A46386A96
:101BA80004F0EEFB7B69DA68BB691B09C3F30A031F
:101BB8001A447B69DA607B695A69BB691B09C3F3FC
:101BC8000A031A447B695A6116E0BB695B0C03F08F
:101BD8000F03062B10D17B6803F29C430822194699
:101BE800386A04F0CDFB7B695A69BB691B09C3F3EA
:101BF8000A031A447B695A617B681B689A697B6887
:101C08001B6842F010029A617B681B68184604F052
:101C18004BFD034603F40023B3F5002F40F0A780E3
:101C280000237B627B681B68184604F050FDB8628D
:101C380099E0BB6A03F00103002B00F08E807B68FB
:101C48001B687A6AD2B21146184604F074FD3861EE
:101C58003B6903F00103002B0CD07B6A5A01FB6936
:101C6800134403F530631A4601239360796A786850
:101C780000F0A4FE3B6903F00803002B0CD07B6A3C
:101C88005A01FB69134403F530631A46082393602D
:101C9800796A786800F07AFF3B6903F01003002B3B
:101CA80008D07B6A5A01FB69134403F530631A466E
:101CB800102393603B6903F00203002B30D03B6A8A
:101CC8005B6903F08003802B09D1FB6903F500638E
:101CD8005B68FA6902F5006243F4806353607A6ACC
:101CE8001346DB0013449B0003F514737A6813440E
:101CF80004337B617B69DB78012B08D17B69002287
:101D0800DA707B6ADBB21946786807F0FFF87B6AFD
:101D18005A01FB69134403F530631A4602239360A2
:101D28003B6903F02003002B08D07B6A5A01FB694A
:101D3800134403F530631A46202393603B6903F488
:101D48000053002B09D07B6A5A01FB69134403F541
:101D580030631A464FF4005393607B6A01337B6209
:101D6800BB6A5B08BB62BB6A002B7FF462AF7B680F
:101D78001B68184604F098FC034603F48023B3F567
:101D8800802F40F0DB807B681B68184604F0B9FCA4
:101D9800B86200237B62CDE0BB6A03F00103002B2D
:101DA80000F0C2807B681B687A6AD2B21146184676
:101DB80004F0DFFC38613B6903F00103002B57D0C6
:101DC8007B6A03F00F03012202FA03F3FB60FB694D
:101DD80003F500635A6BFB68DB43F96901F50061A1
:101DE80013404B637B6A5A01FB69134403F5106384
:101DF8001A46012393607B689B79012B32D179685D
:101E08007A6A1346DB0013449B000B44203319689D
:101E180078687A6A1346DB0013449B0003441C333A
:101E28001B68194478687A6A1346DB0013449B00E0
:101E38000344203319607B6A002B13D179687A6ACE
:101E48001346DB0013449B000B4424331B68002B10
:101E580008D17B6818687B6803F29C431A46012105
:101E680004F0E6FC7B6ADBB21946786806F0C9FF25
:101E78003B6903F00803002B08D07B6A5A01FB6911
:101E8800134403F510631A46082393603B6903F073
:101E98001003002B08D07B6A5A01FB69134403F531
:101EA80010631A46102393603B6903F04003002B2C
:101EB80008D07B6A5A01FB69134403F510631A467C
:101EC800402393603B6903F00203002B23D0796A17
:101ED800386A03F0CDFC7A6A1346DB0013449B0092
:101EE80010337A68134404337B617B69DB78012BF8
:101EF80008D17B690022DA707B6ADBB21946786800
:101F080007F016F87B6A5A01FB69134403F510635E
:101F18001A46022393603B6903F08003002B03D029
:101F2800796A786800F0BDFC7B6A01337B62BB6A22
:101F38005B08BB62BB6A002B7FF42EAF7B681B6813
:101F4800184604F0B1FB034603F00043B3F1004F19
:101F580022D1FB6903F500635B68FA6902F5006248
:101F680023F0010353607B6893F8CC34012B08D12C
:101F78007B68002283F8CC240021786800F0A4FE56
:101F880002E0786806F0B4FF7B681B685A697B68D2
:101F98001B6802F000425A617B681B68184604F00F
:101FA80083FB034603F40063B3F5006F12D1FB69AA
:101FB80003F500639B6803F00103012B02D17868E5
:101FC80006F070FF7B681B685A697B681B6802F41F
:101FD80000625A617B681B68184604F065FB03467B
:101FE80003F48053B3F5805F40F0B780FB6903F5D5
:101FF80000635B68FA6902F5006223F0010353602D
:102008007B681B681021184603F032FC0023FB6232
:1020180046E0FB6A5A01FB69134403F510631A464C
:102028004FF67F339360FB6A5A01FB69134403F54B
:1020380010631B68FA6A5101FA690A4402F51062D2
:1020480023F400131360FB6A5A01FB69134403F578
:1020580030631A464FF67F339360FB6A5A01FB6977
:10206800134403F530631B68FA6A5101FA690A449C
:1020780002F5306223F400131360FB6A5A01FB690E
:10208800134403F530631B68FA6A5101FA690A447C
:1020980002F5306243F000631360FB6A0133FB62B0
:1020A8007B681B791A46FB6A9342B2D3FB6903F536
:1020B8000063DB69FA6902F5006243F00113D3613A
:1020C8007B68DB7B002B16D0FB6903F50063D3F834
:1020D8008430FA6902F5006243F00B03C2F88430D9
:1020E800FB6903F500635B6CFA6902F5006243F073
:1020F8000B03536415E0FB6903F500635B69FA6938
:1021080002F5006243F4005343F02B035361FB696B
:1021180003F500631B69FA6902F5006243F00B03DB
:102128001361FB6903F500631B68FA6902F5006235
:1021380023F4FE6313607B6818687B6899797B6871
:1021480003F29C431A4604F073FB7B681B685A69C8
:102158007B681B6802F480525A617B681B681846CA
:1021680004F0A2FA034603F40053B3F5005F23D149
:102178007B681B68184604F038FB7B681B681846A8
:1021880003F0EFFB03461A467B68DA717B681C682C
:1021980001F00AFA01467B68DB791A46204603F00B
:1021A800F3F8786806F055FE7B681B685A697B6807
:1021B8001B6802F400525A617B681B68184604F0D9
:1021C80073FA034603F00803082B0AD1786806F06F
:1021D80032FE7B681B685A697B681B6802F008023C
:1021E8005A617B681B68184604F05EFA034603F0E0
:1021F8008003802B23D13B6A9B6923F080023B6AD2
:102208009A6101237B6214E079687A6A1346DB00DD
:1022180013449B000B4403F257231B78012B05D171
:102228007B6ADBB21946786800F00AFB7B6A0133E7
:102238007B627B681B791A467B6A9342E4D37B688E
:102248001B68184604F030FA034603F48013B3F50C
:10225800801F3CD101237B622BE07B6A5A01FB691A
:10226800134403F510631B68BB6179687A6A1346E7
:10227800DB0013449B000B4418331B78012B15D14A
:10228800BB69002B12DA79687A6A1346DB001344BB
:102298009B000B44173301221A707B6ADBB263F090
:1022A8007F03DBB21946786800F0CAFA7B6A01330B
:1022B8007B627B681B791A467B6A9342CDD37B6825
:1022C8001B685A697B681B6802F480125A617B6834
:1022D8001B68184604F0E8F9034603F40013B3F545
:1022E800001F56D101237B6245E07B6A5A01FB69D6
:1022F800134403F530631B68BB6179687A6A134637
:10230800DB0013449B000B4403F516731B78012B69
:102318002ED1BB69002B2BDABB6903F480327B68B2
:10232800D3F8D43403F001039A4221D179687A6A48
:102338001346DB0013449B000B4403F2572301228E
:102348001A703B6A9B6943F080023B6A9A613B6A58
:102358005B6903F08003002B0AD1FB6903F5006376
:102368005B68FA6902F5006243F40073536008E0A1
:102378007B6A01337B627B681B791A467B6A9342CE
:10238800B3D37B681B685A697B681B6802F4001228
:102398005A617B681B68184604F086F9034603F007
:1023A8008043B3F1804F0AD1786806F0D3FD7B688B
:1023B8001B685A697B681B6802F080425A617B6817
:1023C8001B68184604F070F9034603F00403042B55
:1023D80015D17B681B685B68BB61BB6903F00403AC
:1023E800002B02D0786806F0C3FD7B681B6859682B
:1023F8007B681B68BA690A435A6000E000BF34373B
:10240800BD4690BD80B582B000AF78600B46FB70CA
:102418007B6893F89434012B01D1022312E07B6886
:10242800012283F894247B68FA785A747B681B68C5
:10243800FA781146184604F0CFF87B68002283F832
:102448009424002318460837BD4680BD80B584B063
:1024580000AF7860084611461A460346FB700B46E3
:102468003B801346BB700023FB7297F90330002BA7
:102478000FDAFB7803F00F021346DB0013449B00CE
:1024880010337A6813440433FB60FB6801225A70E6
:102498000FE0FB7803F00F021346DB0013449B00A8
:1024A80003F514737A6813440433FB60FB68002255
:1024B8005A70FB7803F00F03DAB2FB681A703B8896
:1024C800C3F30A02FB689A60FB68BA781A71FB6862
:1024D8005B78002B04D0FB681B781A46FB685A838C
:1024E800BB78022B02D1FB6800225A717B6893F8F3
:1024F8009434012B01D102230EE07B68012283F87A
:1025080094247B681B68F968184603F04FFA7B68C7
:10251800002283F89424FB7A18461037BD4680BD04
:1025280080B584B000AF78600B46FB7097F9033034
:10253800002B0FDAFB7803F00F021346DB0013447D
:102548009B0010337A6813440433FB60FB68012254
:102558005A700FE0FB7803F00F021346DB001344B8
:102568009B0003F514737A6813440433FB60FB681B
:1025780000225A70FB7803F00F03DAB2FB681A7076
:102588007B6893F89434012B01D102230EE07B6819
:10259800012283F894247B681B68F968184603F0C5
:1025A8008DFA7B68002283F894240023184610379C
:1025B800BD4680BD80B586B000AFF8607A603B60EC
:1025C8000B46FB72FB7A03F00F021346DB00134441
:1025D8009B0003F51473FA68134404337B617B6929
:1025E8007A68DA607B693A681A617B6900225A6105
:1025F8007B6900225A70FB7A03F00F03DAB27B6919
:102608001A70FB689B79012B02D17A687B69DA61C1
:10261800FB681868FB689B791A46796903F02AFBFE
:10262800002318461837BD4680BD80B483B000AF7C
:1026380078600B46FB70FB7803F00F02796813464D
:10264800DB0013449B000B4403F51A731B68184600
:102658000C37BD465DF8047B704780B586B000AF87
:10266800F8607A603B600B46FB72FB7A03F00F025E
:102678001346DB0013449B001033FA6813440433F9
:102688007B617B697A68DA607B693A681A617B6981
:1026980000225A617B6901225A70FB7A03F00F030A
:1026A800DAB27B691A70FB689B79012B02D17A68D0
:1026B8007B69DA61FB681868FB689B791A46796957
:1026C80003F0D8FA002318461837BD4680BD80B5F8
:1026D80084B000AF78600B46FB70FB7803F00F0303
:1026E8007A681279934201D901234FE097F90330B0
:1026F800002B0FDAFB7803F00F021346DB001344BC
:102708009B0010337A6813440433FB60FB68012292
:102718005A700DE0FA781346DB0013449B0003F56A
:1027280014737A6813440433FB60FB6800225A7000
:10273800FB6801229A70FB7803F00F03DAB2FB689A
:102748001A707B6893F89434012B01D102231DE0A1
:102758007B68012283F894247B681B68F968184613
:1027680003F066FEFB7803F00F03002B09D17B68AA
:1027780018687B6899797B6803F29C431A4604F0D1
:1027880057F87B68002283F89424002318461037F2
:10279800BD4680BD80B584B000AF78600B46FB7045
:1027A800FB7803F00F037A681279934201D9012369
:1027B80042E097F90330002B0FDAFB7803F00F02A1
:1027C8001346DB0013449B0010337A681344043328
:1027D800FB60FB6801225A700FE0FB7803F00F02E0
:1027E8001346DB0013449B0003F514737A68134403
:1027F8000433FB60FB6800225A70FB6800229A7061
:10280800FB7803F00F03DAB2FB681A707B6893F861
:102818009434012B01D102230EE07B68012283F856
:1028280094247B681B68F968184603F06FFE7B6880
:10283800002283F89424002318461037BD4680BD33
:1028480080B584B000AF78600B46FB7097F9033011
:10285800002B0CDAFB7803F00F021346DB0013445D
:102868009B0010337A6813440433FB600CE0FB7858
:1028780003F00F021346DB0013449B0003F51473A7
:102888007A6813440433FB607B681B68F968184650
:1028980003F08EFC0346FB72FB7A18461037BD46E0
:1028A80080BD80B58AB002AF786039607B681B68EC
:1028B8007B617B693B613A681346DB0013449B00EC
:1028C80010337A6813440433FB60FB685A69FB6869
:1028D8001B699A4201D901236BE0FB681A69FB68FE
:1028E8005B69D31AFB61FB689B68FA699A4202D953
:1028F800FB689B68FB61FB6903339B08BB612AE0AB
:10290800FB681A69FB685B69D31AFB61FB689B6803
:10291800FA699A4202D9FB689B68FB61FB69033339
:102928009B08BB61FB68D9683B68DAB2FB6998B25F
:102938007B689B7900930346786903F0E3FCFB68A6
:10294800DA68FB691A44FB68DA60FB685A69FB6954
:102958001A44FB685A613B685A013B69134403F502
:1029680010639B699BB2BA699A4209D8FB685A6995
:10297800FB681B699A4203D2FB681B69002BBFD115
:10298800FB681A69FB685B699A4211D83B6803F0D7
:102998000F03012202FA03F3BB603B6903F50063EE
:1029A8005A6BBB68DB43396901F5006113404B631F
:1029B800002318462037BD4680BD000080B588B08A
:1029C80000AF786039607B681B68FB61FB69BB619D
:1029D800FB693C3304331B687B613B685A01BB6964
:1029E800134403F530639B683B617B689B79012B3B
:1029F8007BD13B6903F00803002B15D07B69614A42
:102A0800934240F2B9803B6903F40043002B00F085
:102A1800B3803B685A01BB69134403F530631A4617
:102A28004FF400439360A7E03B6903F02003002BB9
:102A380009D03B685A01BB69134403F530631A4651
:102A48002023936098E03B6903F02803002B40F0B3
:102A580093807B694B4A93420FD93B6903F4004347
:102A6800002B0AD03B685A01BB69134403F5306355
:102A78001A464FF4004393607EE03A681346DB0041
:102A880013449B0003F514737A6813440433FB6002
:102A9800FB681A6A3B685901BB690B4403F530634C
:102AA8001B69C3F31203D21AFB685A613B68002BF7
:102AB80014D1FB681B69002B09D17B6818687B68F7
:102AC80003F29C431A46012103F0B2FE06E0FB68BC
:102AD800DA68FB685B691A44FB68DA603B68DBB25A
:102AE8001946786806F072F946E07B69264A9342EF
:102AF80024D13B6903F40043002B0AD03B685A01F8
:102B0800BB69134403F530631A464FF400439360DE
:102B180032E03B6903F02003002B08D03B685A01E0
:102B2800BB69134403F530631A46202393603B685E
:102B3800DBB21946786806F049F91DE03B68002BBE
:102B480014D179683A681346DB0013449B000B44A0
:102B580003F519731B68002B08D17B6818687B681C
:102B680003F29C431A46002103F062FE3B68DBB285
:102B78001946786806F02AF9002318462037BD461A
:102B880080BD00BF0A30544F0A31544F80B586B01B
:102B980000AF786039607B681B687B617B693B614B
:102BA8007B693C3304331B68FB603B685A013B6913
:102BB800134403F530639B68BB60FB68154A934276
:102BC8000ED9BB6803F40043002B09D03B685A01B7
:102BD8003B69134403F530631A464FF4004393608E
:102BE800786806F0E1F8FB680A4A93420CD97B68DA
:102BF8009B79012B08D17B6818687B6803F29C439A
:102C08001A46012103F014FE002318461837BD4662
:102C180080BD00BF0A30544F80B485B000AF7860E3
:102C28000B46FB7013463B807B681B685B6ABB6086
:102C3800FB78002B07D13B8819047B681B68BA68AE
:102C48000A439A6228E07B681B689B6A1B0CBA6877
:102C58001344BB600023FB730DE07B681A68FB7BA1
:102C680040339B0013445B681B0CBA681344BB6079
:102C7800FB7B0133FB73FA7BFB78013B9A42ECD375
:102C88003B8818047B681968FB78013BBA680243E3
:102C980040339B000B445A60002318461437BD4646
:102CA8005DF8047B704780B483B000AF78600B4652
:102CB8007B807B681B687A885A62002318460C3729
:102CC800BD465DF8047B704780B483B000AF786080
:102CD8000B46FB7000BF0C37BD465DF8047B7047A0
:102CE80080B586B000AF78607B68002B01D10123E6
:102CF80067E27B681B6803F00103002B75D0884BE3
:102D08009B6803F00C03042B0CD0854B9B6803F0E5
:102D18000C03082B12D1824B5B6803F48003B3F5D4
:102D2800800F0BD17E4B1B6803F40033002B5BD064
:102D38007B685B68002B57D1012342E27B685B68A4
:102D4800B3F5803F06D1764B1B68754A43F4803350
:102D580013601DE07B685B68B3F5A02F0CD1704B46
:102D68001B686F4A43F4802313606D4B1B686C4AE1
:102D780043F4803313600BE0694B1B68684A23F403
:102D880080331360664B1B68654A23F48023136005
:102D98007B685B68002B13D0FEF7C6F9386108E042
:102DA800FEF7C2F902463B69D31A642B01D9032303
:102DB80007E25B4B1B6803F40033002BF0D014E0F0
:102DC800FEF7B2F9386108E0FEF7AEF902463B6952
:102DD800D31A642B01D90323F3E1514B1B6803F485
:102DE8000033002BF0D100E000BF7B681B6803F0C4
:102DF8000203002B63D04A4B9B6803F00C03002BA3
:102E08000BD0474B9B6803F00C03082B1CD1444B99
:102E18005B6803F48003002B16D1414B1B6803F059
:102E28000203002B05D07B68DB68012B01D001234E
:102E3800C7E13B4B1B6823F0F8027B681B69DB008A
:102E4800374913430B603AE07B68DB68002B20D0DE
:102E5800344B01221A60FEF767F9386108E0FEF783
:102E680063F902463B69D31A022B01D90323A8E16F
:102E78002B4B1B6803F00203002BF0D0284B1B6878
:102E880023F0F8027B681B69DB00254913430B60BC
:102E980015E0244B00221A60FEF746F9386108E075
:102EA800FEF742F902463B69D31A022B01D90323E4
:102EB80087E11B4B1B6803F00203002BF0D17B68F2
:102EC8001B6803F00803002B36D07B685B69002B76
:102ED80016D0154B01221A60FEF726F9386108E072
:102EE800FEF722F902463B69D31A022B01D90323C4
:102EF80067E10B4B5B6F03F00203002BF0D01BE084
:102F0800094B00221A60FEF70FF938610EE0FEF750
:102F18000BF902463B69D31A022B07D9032350E168
:102F28000038024000004742800E4742884B5B6FE2
:102F380003F00203002BEAD17B681B6803F004034B
:102F4800002B00F097800023FB75814B1B6C03F06E
:102F58008053002B0FD10023BB607D4B1B6C7C4A38
:102F680043F0805313647A4B1B6C03F08053BB60AF
:102F7800BB680123FB75774B1B6803F48073002B38
:102F880018D1744B1B68734A43F480731360FEF7BF
:102F9800CBF8386108E0FEF7C7F802463B69D31A58
:102FA800022B01D903230CE16A4B1B6803F48073DD
:102FB800002BF0D07B689B68012B06D1644B1B6FFC
:102FC800634A43F0010313671CE07B689B68052B89
:102FD8000CD15F4B1B6F5E4A43F0040313675C4BD5
:102FE8001B6F5B4A43F0010313670BE0584B1B6FE1
:102FF800574A23F001031367554B1B6F544A23F0BC
:10300800040313677B689B68002B15D0FEF78CF8C8
:1030180038610AE0FEF788F802463B69D31A41F2A4
:103028008832934201D90323CBE0494B1B6F03F04D
:103038000203002BEED014E0FEF776F838610AE0C0
:10304800FEF772F802463B69D31A41F2883293427E
:1030580001D90323B5E03E4B1B6F03F00203002B9D
:10306800EED1FB7D012B05D1394B1B6C384A23F07F
:10307800805313647B689B69002B00F0A180344B5C
:103088009B6803F00C03082B5CD07B689B69022BC0
:1030980041D1314B00221A60FEF746F8386108E04A
:1030A800FEF742F802463B69D31A022B01D90323E3
:1030B80087E0274B1B6803F00073002BF0D17B6877
:1030C800DA697B681B6A1A437B685B6A9B011A434F
:1030D8007B689B6A5B08013B1B041A437B68DB6ABD
:1030E8001B061B4913434B601B4B01221A60FEF75A
:1030F8001BF8386108E0FEF717F802463B69D31A57
:10310800022B01D903235CE0114B1B6803F0007309
:10311800002BF0D054E0104B00221A60FEF704F8A0
:10312800386108E0FEF700F802463B69D31A022B23
:1031380001D9032345E0064B1B6803F00073002BFD
:10314800F0D13DE07B689B69012B07D1012338E072
:103158000038024000700040600047421B4B5B682B
:10316800FB607B689B69012B28D0FB6803F4800215
:103178007B68DB699A4221D1FB6803F03F027B68D8
:103188001B6A9A421AD1FA6847F6C07313407A68E4
:10319800526A9201934211D1FB6803F440327B6872
:1031A8009B6A5B08013B1B049A4207D1FB6803F04A
:1031B80070627B68DB6A1B069A4201D0012300E03B
:1031C800002318461837BD4680BD00BF00380240AE
:1031D80080B584B000AF786039607B68002B01D17E
:1031E8000123CCE0684B1B6803F007033A689A4256
:1031F8000CD9654B3A68D2B21A70634B1B6803F05E
:1032080007033A689A4201D00123B8E07B681B683B
:1032180003F00203002B20D07B681B6803F0040333
:10322800002B05D0594B9B68584A43F4E0539360F0
:103238007B681B6803F00803002B05D0534B9B6881
:10324800524A43F460439360504B9B6823F0F0026A
:103258007B689B684D4913438B607B681B6803F050
:103268000103002B44D07B685B68012B07D1474BD7
:103278001B6803F40033002B19D101237FE07B681E
:103288005B68022B03D07B685B68032B07D13F4B3D
:103298001B6803F00073002B09D101236FE03B4B3F
:1032A8001B6803F00203002B01D1012367E0374BB1
:1032B8009B6823F003027B685B68344913438B6087
:1032C800FDF732FFF8600AE0FDF72EFF0246FB68C3
:1032D800D31A41F28832934201D903234FE02B4B92
:1032E8009B6803F00C027B685B689B009A42EBD1F9
:1032F800254B1B6803F007033A689A420CD2224B0D
:103308003A68D2B21A70204B1B6803F007033A6878
:103318009A4201D0012332E07B681B6803F0040362
:10332800002B08D0194B9B6823F4E0527B68DB68BC
:10333800164913438B607B681B6803F00803002B56
:1033480009D0124B9B6823F460427B681B69DB0041
:103358000E4913438B6000F021F802460B4B9B6823
:103368001B0903F00F030A49CB5C22FA03F3094A4D
:103378001360094B1B681846FDF792FE0023184698
:103388001037BD4680BD00BF003C024000380240F7
:10339800489E000800000020040000202DE9B04FDE
:1033A80094B000AF00237B640023FB6400233B64DC
:1033B8000023BB64794B9B6803F00C03082B0DD0EA
:1033C800082B00F2E180002B02D0042B03D0DBE0B5
:1033D800734BBB64DBE0734BBB64D8E06F4B5B683B
:1033E80003F03F037B646D4B5B6803F48003002BA1
:1033F80063D06A4B5B689B090022BB63FA63BB6BB3
:10340800C3F308033B6300237B63D7E90C452246DB
:103418002B464FF000004FF00001590141EAD261FC
:10342800500102460B462146511A3961294663EB81
:1034380001037B614FF000024FF00003D7E904ABB2
:1034480059468B01514643EA916351468A015146D8
:10345800B2EB0108594663EB01094FF000024FF047
:1034680000034FEAC90343EA58734FEAC80290467B
:103478009946234618EB0303BB602B4649EB03032D
:10348800FB604FF000024FF00003D7E902452946E0
:103498004B02214643EAD15321464A0210461946B7
:1034A8007B6C0022BB62FA62D7E90A23FCF788FE2C
:1034B80002460B461346FB6458E0384B5B689B0991
:1034C800002218461146C0F308033B6200237B62C2
:1034D800D7E9088942464B464FF000004FF00001FB
:1034E800590141EAD261500102460B464146B2EB0E
:1034F800010A494663EB010B4FF000024FF000034D
:103508004FEA8B1343EA9A634FEA8A12B2EB0A0432
:1035180063EB0B054FF000024FF00003EB0043EAAA
:103528005473E20014461D464346E3183B604B467D
:1035380045EB03037B604FF000024FF00003D7E92F
:10354800004529468B02214643EA915321468A02C7
:10355800104619467B6C0022BB61FA61D7E9062345
:10356800FCF72EFE02460B461346FB640B4B5B68CA
:103578001B0C03F0030301335B003B64FA6C3B6CE8
:10358800B2FBF3F3BB6402E0054BBB6400BFBB6C4A
:1035980018465037BD46BDE8B08F00BF003802401E
:1035A8000024F40000127A0080B400AF034B1B68BB
:1035B8001846BD465DF8047B704700BF0000002038
:1035C80080B500AFFFF7F0FF0246054B9B689B0AEA
:1035D80003F007030349CB5C22FA03F3184680BDC6
:1035E80000380240589E000880B500AFFFF7DCFFA6
:1035F8000246054B9B685B0B03F007030349CB5C52
:1036080022FA03F3184680BD00380240589E00088D
:1036180080B582B000AF78607B68002B01D10123B0
:1036280041E07B6893F83D30DBB2002B06D17B6824
:10363800002283F83C207868FDF706FB7B680222AD
:1036480083F83D207B681A687B6804331946104666
:1036580000F0D8FA7B68012283F846207B680122B3
:1036680083F83E207B68012283F83F207B68012293
:1036780083F840207B68012283F841207B6801227F
:1036880083F842207B68012283F843207B6801226B
:1036980083F844207B68012283F845207B68012257
:1036A80083F83D20002318460837BD4680BD80B505
:1036B80082B000AF78607B68002B01D1012341E024
:1036C8007B6893F83D30DBB2002B06D17B68002283
:1036D80083F83C20786800F039F87B68022283F888
:1036E8003D207B681A687B6804331946104600F051
:1036F80089FA7B68012283F846207B68012283F8D7
:103708003E207B68012283F83F207B68012283F8F2
:1037180040207B68012283F841207B68012283F8DE
:1037280042207B68012283F843207B68012283F8CA
:1037380044207B68012283F845207B68012283F8B6
:103748003D20002318460837BD4680BD80B483B0AD
:1037580000AF786000BF0C37BD465DF8047B70474A
:1037680080B584B000AF786039603B68002B09D120
:103778007B6893F83E30DBB2012B14BF0123002392
:10378800DBB222E03B68042B09D17B6893F83F3019
:10379800DBB2012B14BF01230023DBB215E03B6829
:1037A800082B09D17B6893F84030DBB2012B14BF9A
:1037B80001230023DBB208E07B6893F84130DBB2D9
:1037C800012B14BF01230023DBB2002B01D00123FE
:1037D8007CE03B68002B04D17B68022283F83E2002
:1037E80013E03B68042B04D17B68022283F83F2056
:1037F8000BE03B68082B04D17B68022283F8402049
:1038080003E07B68022283F841207B681B68012261
:103818003968184600F0ECFC7B681B682D4A934217
:1038280004D07B681B682C4A934201D1012300E035
:103838000023002B07D07B681B685A6C7B681B68C9
:1038480042F400425A647B681B68224A934222D0A1
:103858007B681B68B3F1804F1DD07B681B681F4ACB
:10386800934218D07B681B681D4A934213D07B682B
:103878001B681C4A93420ED07B681B68164A934209
:1038880009D07B681B68184A934204D07B681B6880
:10389800164A934211D17B681B689B6803F00703A3
:1038A800FB60FB68062B10D07B681B681A687B6876
:1038B8001B6842F001021A6007E07B681B681A68FF
:1038C8007B681B6842F001021A6000231846103713
:1038D800BD4680BD000001400004014000040040D6
:1038E80000080040000C0040004001400018004063
:1038F80080B586B000AFF860B9607A600023FB75C8
:10390800FB6893F83C30012B01D10223AEE0FB6841
:10391800012283F83C207B680C2B00F29F8001A2D7
:1039280052F823F061390008653A0008653A000842
:10393800653A0008A1390008653A0008653A0008A8
:10394800653A0008E3390008653A0008653A000856
:10395800653A0008233A0008FB681B68B9681846EE
:1039680000F0FCF9FB681B689A69FB681B6842F069
:1039780008029A61FB681B689A69FB681B6822F059
:1039880004029A61FB681B689969BB681A69FB683D
:103998001B680A439A6164E0FB681B68B9681846AB
:1039A80000F04CFAFB681B689A69FB681B6842F4D4
:1039B80000629A61FB681B689A69FB681B6822F4BD
:1039C80080629A61FB681B689969BB681B691A0267
:1039D800FB681B680A439A6143E0FB681B68B96887
:1039E800184600F0A1FAFB681B68DA69FB681B68D7
:1039F80042F00802DA61FB681B68DA69FB681B6839
:103A080022F00402DA61FB681B68D969BB681A698D
:103A1800FB681B680A43DA6123E0FB681B68B96826
:103A2800184600F0F5FAFB681B68DA69FB681B6842
:103A380042F40062DA61FB681B68DA69FB681B689C
:103A480022F48062DA61FB681B68D969BB681B696C
:103A58001A02FB681B680A43DA6102E00123FB755E
:103A680000BFFB68002283F83C20FB7D184618370E
:103A7800BD4680BD80B584B000AF78603960002352
:103A8800FB737B6893F83C30012B01D10223B4E02F
:103A98007B68012283F83C207B68022283F83D2062
:103AA8007B681B689B68BB60BB6823F07703BB60BF
:103AB800BB6823F47F43BB607B681B68BA689A6065
:103AC8003B681B68B3F5005F3ED0B3F5005F00F2BA
:103AD8008780B3F5805F00F08680B3F5805F7FD87C
:103AE800702B1AD0702B7BD8602B50D0602B77D8D6
:103AF800502B3CD0502B73D8402B58D0402B6FD82C
:103B0800302B64D0302B6BD8202B60D0202B67D87B
:103B1800002B5CD0102B5AD062E07B6818683B6899
:103B280099683B685A683B68DB6800F041FB7B6832
:103B38001B689B68BB60BB6843F07703BB607B680E
:103B48001B68BA689A604FE07B6818683B68996898
:103B58003B685A683B68DB6800F02AFB7B681B6897
:103B68009A687B681B6842F480429A603CE07B68F4
:103B780018683B6859683B68DB681A4600F09EFA8B
:103B88007B681B685021184600F0F7FA2CE07B6828
:103B980018683B6859683B68DB681A4600F0BDFA4C
:103BA8007B681B686021184600F0E7FA1CE07B6818
:103BB80018683B6859683B68DB681A4600F07EFA6B
:103BC8007B681B684021184600F0D7FA0CE07B6838
:103BD8001A683B681B681946104600F0CEFA03E0E5
:103BE8000123FB7300E000BF7B68012283F83D20BE
:103BF8007B68002283F83C20FB7B18461037BD46C3
:103C080080BD000080B485B000AF786039607B6803
:103C18001B68FB607B68464A934213D07B68B3F10C
:103C2800804F0FD07B68434A93420BD07B68424A4F
:103C3800934207D07B68414A934203D07B68404A4D
:103C4800934208D1FB6823F07003FB603B685B6814
:103C5800FA681343FB607B68354A93422BD07B6834
:103C6800B3F1804F27D07B68324A934223D07B68D8
:103C7800314A93421FD07B68304A93421BD07B68FD
:103C88002F4A934217D07B682E4A934213D07B6801
:103C98002D4A93420FD07B682C4A93420BD07B6805
:103CA8002B4A934207D07B682A4A934203D07B6809
:103CB800294A934208D1FB6823F44073FB603B68B0
:103CC800DB68FA681343FB60FB6823F080023B68FB
:103CD8005B691343FB607B68FA681A603B689A6803
:103CE8007B68DA623B681A687B689A627B68104A6C
:103CF800934203D07B68124A934203D13B681A6906
:103D08007B681A637B6801225A617B681B6903F030
:103D18000103012B05D17B681B6923F001027B6835
:103D28001A6100BF1437BD465DF8047B704700BFB9
:103D3800000001400004004000080040000C004062
:103D48000004014000400140004401400048014097
:103D580000180040001C00400020004080B487B0DC
:103D680000AF786039607B681B6A7B617B681B6A7F
:103D780023F001027B681A627B685B683B617B68A1
:103D88009B69FB60FB6823F07003FB60FB6823F012
:103D98000303FB603B681B68FA681343FB607B699D
:103DA80023F002037B613B689B687A6913437B615C
:103DB8007B68204A934203D07B681F4A93420CD108
:103DC8007B6923F008037B613B68DB687A691343EE
:103DD8007B617B6923F004037B617B68154A93420E
:103DE80003D07B68144A934211D13B6923F4807352
:103DF8003B613B6923F400733B613B685B693A694B
:103E080013433B613B689B693A6913433B617B6899
:103E18003A695A607B68FA689A613B685A687B68B5
:103E28005A637B687A691A6200BF1C37BD465DF821
:103E3800047B7047000001400004014080B487B053
:103E480000AF786039607B681B6A7B617B681B6A9E
:103E580023F010027B681A627B685B683B617B68B1
:103E68009B69FB60FB6823F4E043FB60FB6823F479
:103E78004073FB603B681B681B02FA681343FB60D6
:103E88007B6923F020037B613B689B681B017A698F
:103E980013437B617B68224A934203D07B68214AA3
:103EA80093420DD17B6923F080037B613B68DB681B
:103EB8001B017A6913437B617B6923F040037B61B3
:103EC8007B68174A934203D07B68164A934213D102
:103ED8003B6923F480633B613B6923F400633B61E6
:103EE8003B685B699B003A6913433B613B689B698C
:103EF8009B003A6913433B617B683A695A607B6867
:103F0800FA689A613B685A687B689A637B687A6941
:103F18001A6200BF1C37BD465DF8047B704700BFBE
:103F2800000001400004014080B487B000AF786011
:103F380039607B681B6A7B617B681B6A23F480722B
:103F48007B681A627B685B683B617B68DB69FB6046
:103F5800FB6823F07003FB60FB6823F00303FB603E
:103F68003B681B68FA681343FB607B6923F40073A2
:103F78007B613B689B681B027A6913437B617B68A2
:103F8800214A934203D07B68204A93420DD17B6932
:103F980023F400637B613B68DB681B027A69134387
:103FA8007B617B6923F480637B617B68164A93425B
:103FB80003D07B68154A934213D13B6923F480539D
:103FC8003B613B6923F400533B613B685B691B0120
:103FD8003A6913433B613B689B691B013A69134388
:103FE8003B617B683A695A607B68FA68DA613B68CA
:103FF8005A687B68DA637B687A691A6200BF1C3783
:10400800BD465DF8047B7047000001400004014094
:1040180080B487B000AF786039607B681B6A3B6109
:104028007B681B6A23F480527B681A627B685B6832
:104038007B617B68DB69FB60FB6823F4E043FB6022
:10404800FB6823F44073FB603B681B681B02FA683B
:104058001343FB603B6923F400533B613B689B6857
:104068001B033A6913433B617B68124A934203D0AE
:104078007B68114A934209D17B6923F480437B61B1
:104088003B685B699B017A6913437B617B687A694A
:104098005A607B68FA68DA613B685A687B681A6418
:1040A8007B683A691A6200BF1C37BD465DF8047B1D
:1040B800704700BF000001400004014080B487B091
:1040C80000AFF860B9607A60FB681B6A7B61FB68C7
:1040D8001B6A23F00102FB681A62FB689B693B615B
:1040E8003B6923F0F0033B617B681B013A6913438A
:1040F8003B617B6923F00A037B617A69BB681343E0
:104108007B61FB683A699A61FB687A691A6200BF49
:104118001C37BD465DF8047B704780B487B000AF9C
:10412800F860B9607A60FB681B6A7B61FB681B6A90
:1041380023F01002FB681A62FB689B693B613B69CC
:1041480023F470433B617B681B033A6913433B616B
:104158007B6923F0A0037B61BB681B017A69134369
:104168007B61FB683A699A61FB687A691A6200BFE9
:104178001C37BD465DF8047B704780B485B000AF3E
:10418800786039607B689B68FB60FB6823F070038C
:10419800FB603A68FB68134343F00703FB607B68E6
:1041A800FA689A6000BF1437BD465DF8047B704713
:1041B80080B487B000AFF860B9607A603B60FB6894
:1041C8009B687B617B6923F47F437B613B681A02B0
:1041D8007B681A43BB6813437A6913437B61FB68A6
:1041E8007A699A6000BF1C37BD465DF8047B70474A
:1041F80080B487B000AFF860B9607A60BB6803F03C
:104208001F03012202FA03F37B61FB681A6A7B69C8
:10421800DB431A40FB681A62FB681A6ABB6803F042
:104228001F03796801FA03F31A43FB681A6200BF97
:104238001C37BD465DF8047B7047000080B485B02C
:1042480000AF786039607B6893F83C30012B01D16E
:1042580002235AE07B68012283F83C207B68022213
:1042680083F83D207B681B685B68FB607B681B6884
:104278009B68BB60FB6823F07003FB603B681B68AE
:10428800FA681343FB607B681B68FA685A607B68AE
:104298001B68214A934222D07B681B68B3F1804F88
:1042A8001DD07B681B681D4A934218D07B681B6829
:1042B8001B4A934213D07B681B681A4A93420ED05C
:1042C8007B681B68184A934209D07B681B68174AA9
:1042D800934204D07B681B68154A93420CD1BB6893
:1042E80023F08003BB603B685B68BA681343BB601C
:1042F8007B681B68BA689A607B68012283F83D2056
:104308007B68002283F83C20002318461437BD46FA
:104318005DF8047B704700BF0000014000040040C6
:1043280000080040000C004000040140004001402B
:104338000018004080B485B000AF78603960002371
:10434800FB607B6893F83C30012B01D102233DE0F0
:104358007B68012283F83C20FB6823F0FF023B685E
:10436800DB681343FB60FB6823F440723B689B687F
:104378001343FB60FB6823F480623B685B6813436C
:10438800FB60FB6823F400623B681B681343FB6017
:10439800FB6823F480523B681B691343FB60FB688E
:1043A80023F400523B685B691343FB60FB6823F40A
:1043B80080423B68DB691343FB607B681B68FA68D3
:1043C8005A647B68002283F83C200023184614377F
:1043D800BD465DF8047B704780B582B000AF786059
:1043E8007B68002B01D1012342E07B6893F84130C0
:1043F800DBB2002B06D17B68002283F84020786866
:10440800FCF7B8FC7B68242283F841207B681B6892
:10441800DA687B681B6822F40052DA60786800F07A
:10442800DBFC7B681B681A697B681B6822F4904276
:104438001A617B681B685A697B681B6822F02A022C
:104448005A617B681B68DA687B681B6842F4005213
:10445800DA607B6800225A647B68202283F8412056
:104468007B68202283F842207B6800225A6300235D
:1044780018460837BD4680BD80B584B000AFF860E7
:10448800B9601346FB80FB6893F84230DBB2202BFF
:1044980012D1BB68002B02D0FB88002B01D101236D
:1044A8000BE0FB6800221A63FB881A46B968F868B3
:1044B80000F0BAFA034600E0022318461037BD465A
:1044C80080BD000080B5BAB000AF78607B681B681B
:1044D8001B68C7F8E4307B681B68DB68C7F8E03006
:1044E8007B681B685B69C7F8DC300023C7F8D830E5
:1044F8000023C7F8D430D7F8E43003F00F03C7F827
:10450800D830D7F8D830002B0FD1D7F8E43003F0E3
:104518002003002B09D0D7F8E03003F02003002B4C
:1045280003D0786800F099FB5BE2D7F8D830002B0D
:1045380000F0DE80D7F8DC3003F00103002B06D151
:10454800D7F8E03003F49073002B00F0D180D7F84F
:10455800E43003F00103002B0BD0D7F8E03003F46C
:104568008073002B05D07B685B6C43F001027B688D
:104578005A64D7F8E43003F00403002B0BD0D7F8C3
:10458800DC3003F00103002B05D07B685B6C43F043
:1045980002027B685A64D7F8E43003F00203002B68
:1045A8000BD0D7F8DC3003F00103002B05D07B6873
:1045B8005B6C43F004027B685A64D7F8E43003F07C
:1045C8000803002B11D0D7F8E03003F02003002BAC
:1045D80005D1D7F8DC3003F00103002B05D07B6848
:1045E8005B6C43F008027B685A647B685B6C002B49
:1045F80000F0F281D7F8E43003F02003002B08D054
:10460800D7F8E03003F02003002B02D0786800F0E0
:1046180024FB7B681B685B6903F04003402B0CBFDD
:1046280001230023DBB2C7F8D4307B685B6C03F04E
:104638000803002B03D1D7F8D430002B4FD078686B
:1046480000F02CFA7B681B685B6903F04003402B81
:1046580041D17B681B681433C7F89C30D7F89C306D
:1046680053E8003FC7F89830D7F8983023F0400354
:10467800C7F8D0307B681B681433D7F8D020C7F848
:10468800A820C7F8A430D7F8A410D7F8A82041E884
:104698000023C7F8A030D7F8A030002BD9D17B6809
:1046A800DB6B002B13D07B68DB6B7E4A1A657B685B
:1046B800DB6B1846FCF7E9FE0346002B16D07B6837
:1046C800DB6B1B6D7A68D26B104698470EE07868F2
:1046D80000F094F90AE0786800F090F906E078684C
:1046E80000F08CF97B6800225A6475E100BF73E121
:1046F8007B681B6B012B40F04F81D7F8E43003F047
:104708001003002B00F04881D7F8E03003F01003C5
:10471800002B00F041810023BB607B681B681B688D
:10472800BB607B681B685B68BB60BB687B681B6899
:104738005B6903F04003402B40F0B6807B68DB6B7D
:104748001B685B68A7F8BE30B7F8BE30002B00F0D6
:1047580045817B689B8DB7F8BE209A4280F03E81E8
:104768007B68B7F8BE20DA857B68DB6BDB69B3F55D
:10477800807F00F088807B681B680C33C7F888301E
:10478800D7F8883053E8003FC7F88430D7F884302A
:1047980023F48073C7F8B8307B681B680C33D7F8EC
:1047A800B820C7F89420C7F89030D7F89010D7F8F9
:1047B800942041E80023C7F88C30D7F88C30002BC0
:1047C800D9D17B681B6814337B677B6F53E8003F44
:1047D8003B673B6F23F00103C7F8B4307B681B6865
:1047E8001433D7F8B420C7F88020FB67F96FD7F8DF
:1047F800802041E80023BB67BB6F002BE1D17B68B9
:104808001B6814333B663B6E53E8003FFB65FB6D4A
:1048180023F04003C7F8B0307B681B681433D7F81F
:10482800B020FA66BB66B96EFA6E41E800237B6673
:104838007B6E002BE3D17B68202283F842207B68C3
:1048480000221A637B681B680C33FB64FB6C53E81B
:10485800003FBB64BB6C23F01003C7F8AC307B6827
:104868001B680C33D7F8AC20BA657B65796DBA6DD7
:1048780041E800233B653B6D002BE3D17B68DB6B94
:104888001846FCF792FD7B6802225A637B689A8D72
:104898007B68DB8D9BB2D31A9BB21946786800F00F
:1048A800B7F89BE06B4B00087B689A8D7B68DB8DC3
:1048B8009BB2D31AA7F8CE307B68DB8D9BB2002B56
:1048C80000F08E80B7F8CE30002B00F089807B682E
:1048D8001B680C33BB63BB6B53E8003F7B637B6B8C
:1048E80023F49073C7F8C8307B681B680C33D7F87B
:1048F800C8207A643B64396C7A6C41E80023FB6316
:10490800FB6B002BE3D17B681B6814337B627B6AEB
:1049180053E8003F3B623B6A23F00103C7F8C43009
:104928007B681B681433D7F8C4203A63FB62F96AC2
:104938003A6B41E80023BB62BB6A002BE3D17B687A
:10494800202283F842207B6800221A637B681B6858
:104958000C333B613B6953E8003FFB60FB6823F085
:104968001003C7F8C0307B681B680C33D7F8C02029
:10497800FA61BB61B969FA6941E800237B617B6927
:10498800002BE3D17B6802225A63B7F8CE30194670
:10499800786800F03DF823E0D7F8E43003F08003AE
:1049A800002B09D0D7F8E03003F08003002B03D0A8
:1049B800786800F0EAF814E0D7F8E43003F0400330
:1049C800002B0ED0D7F8E03003F04003002B08D0BE
:1049D800786800F02AF904E000BF02E000BF00E0B8
:1049E80000BFE837BD4680BD80B483B000AF7860B3
:1049F80000BF0C37BD465DF8047B704780B483B0B8
:104A080000AF786000BF0C37BD465DF8047B704787
:104A180080B483B000AF78600B467B8000BF0C3752
:104A2800BD465DF8047B704780B485B000AFF86080
:104A3800B9601346FB80FB68BA689A62FB68FA881B
:104A48009A85FB68FA88DA85FB6800225A64FB6855
:104A5800222283F84220FB681B69002B07D0FB68E1
:104A68001B68DA68FB681B6842F48072DA60FB68CE
:104A78001B685A69FB681B6842F001025A61FB68AF
:104A88001B68DA68FB681B6842F02002DA600023C2
:104A980018461437BD465DF8047B704780B495B05E
:104AA80000AF78607B681B680C337B637B6B53E8D3
:104AB800003F3B633B6B23F49073FB647B681B688C
:104AC8000C33FA6C3A64FB63F96B3A6C41E80023E7
:104AD800BB63BB6B002BE5D17B681B6814333B625F
:104AE8003B6A53E8003FFB61FB6923F00103BB64A9
:104AF8007B681B681433BA6CFA62BB62B96AFA6ADB
:104B080041E800237B627B6A002BE5D17B681B6B45
:104B1800012B19D17B681B680C33FB60FB6853E8D9
:104B2800003FBB60BB6823F010037B647B681B6895
:104B38000C337A6CBA617B617969BA6941E8002300
:104B48003B613B69002BE5D17B68202283F842203A
:104B58007B6800221A6300BF5437BD465DF8047BAA
:104B6800704780B584B000AF78607B689B6BFB6052
:104B7800FB680022DA85FB680022DA84F868FFF710
:104B88003DFF00BF1037BD4680BD80B485B000AF83
:104B980078607B6893F84130DBB2212B3ED17B688B
:104BA8009B68B3F5805F14D17B681B69002B10D11B
:104BB8007B681B6AFB60FB681B881A467B681B685E
:104BC800C2F308025A607B681B6A9A1C7B681A62E7
:104BD80008E07B681B6A591C7A6811621A787B683E
:104BE8001B685A607B68DB8C9BB2013B9BB27A687E
:104BF8001946D184002B0FD17B681B68DA687B6863
:104C08001B6822F08002DA607B681B68DA687B68C0
:104C18001B6842F04002DA60002300E002231846D5
:104C28001437BD465DF8047B704780B582B000AF8D
:104C380078607B681B68DA687B681B6822F0400232
:104C4800DA607B68202283F841207868FFF7CCFE81
:104C5800002318460837BD4680BD80B58CB000AF2C
:104C680078607B6893F84230DBB2222B40F0AE804C
:104C78007B689B68B3F5805F17D17B681B69002B45
:104C880013D10023FB627B689B6ABB627B681B684D
:104C98005B689BB2C3F308039AB2BB6A1A807B684D
:104CA8009B6A9A1C7B689A6226E07B689B6AFB6217
:104CB8000023BB627B689B68B3F5805F07D07B6885
:104CC8009B68002B0AD17B681B69002B06D17B6887
:104CD8001B685B68DAB2FB6A1A7008E07B681B68BD
:104CE8005B68DBB203F07F03DAB2FB6A1A707B6899
:104CF8009B6A5A1C7B689A627B68DB8D9BB2013B7E
:104D08009BB27A681946D185002B5DD17B681B68F8
:104D1800DA687B681B6822F02002DA607B681B680F
:104D2800DA687B681B6822F48072DA607B681B682B
:104D38005A697B681B6822F001025A617B6820224D
:104D480083F842207B6800225A637B681B6B012B27
:104D580035D17B6800221A637B681B680C337B6142
:104D68007B6953E8003F3B613B6923F010037B629A
:104D78007B681B680C337A6A3A62FB61F9693A6AA4
:104D880041E80023BB61BB69002BE5D17B681B6848
:104D98001B6803F01003102B0AD10023FB607B680B
:104DA8001B681B68FB607B681B685B68FB60FB68B3
:104DB8007B689B8D19467868FFF72AFE02E07868C1
:104DC800FBF710FE002302E0002300E00223184650
:104DD8003037BD4680BD00002DE9B04FC0B000AFF0
:104DE800C7F8F400D7F8F4301B681B6923F4405067
:104DF800D7F8F430D968D7F8F4301A6840EA0103D4
:104E08001361D7F8F4309A68D7F8F4301B691A435D
:104E1800D7F8F4305B691A43D7F8F430DB691343E9
:104E2800C7F8F830D7F8F4301B68DB6823F416416C
:104E380021F00C01D7F8F4301A68D7F8F8300B4392
:104E4800D360D7F8F4301B685B6923F44070D7F857
:104E5800F4309969D7F8F4301A6840EA01035361CD
:104E6800D7F8F4301A688F4B9A4205D0D7F8F43047
:104E78001A688D4B9A4204D1FEF7B6FBC7F8FC00BE
:104E880003E0FEF79DFBC7F8FC00D7F8F430DB69B8
:104E9800B3F5004F40F00C81D7F8FC300022C7F87A
:104EA800E830C7F8EC20D7E93A4522462B46911856
:104EB800B9655B41FB65D7E91623214612EB01086A
:104EC800294643EB01094FF000024FF000034FEA77
:104ED800C90343EA58734FEAC802904699462346E5
:104EE80018EB0303C7F8E0302B4649EB0303C7F878
:104EF800E430D7F8F4305B680022C7F8D830C7F838
:104F0800DC20D7E936120B46DB183B65134642EB2B
:104F180003037B65D7E91423D7E93801FBF750F978
:104F280002460B46614BA3FB02235B091C01D7F821
:104F3800FC300022C7F8D030C7F8D420D7E934892C
:104F480042464B469118B9645B41FB64D7E912238A
:104F5800414612EB010A494643EB010B4FF00002B0
:104F68004FF000034FEACB0343EA5A734FEACA02F1
:104F780092469B4643461AEB0303C7F8C8304B4694
:104F88004BEB0303C7F8CC30D7F8F4305B6800224A
:104F9800C7F8C030C7F8C420D7E930120B46DB1871
:104FA8003B64134642EB03037B64D7E91023D7E93C
:104FB8003201FBF705F902460B4611463B4BA3FBB2
:104FC80001235B09642202FB03F3CB1ADB0003F124
:104FD8003202364BA3FB02235B095B0003F4F87330
:104FE8001C44D7F8FC300022C7F8B830C7F8BC20FA
:104FF800D7E92E8942464B469118B9635B41FB635A
:10500800D7E90E2341465118396349464B417B6322
:105018004FF000024FF00003D7E90CAB5946CB0024
:10502800514643EA51735146CA0010461946034691
:1050380042469B18C7F8B0304B460A4642EB03037A
:10504800C7F8B430D7F8F4305B680022C7F8A83046
:10505800C7F8AC20D7E92A120B46DB18BB62134607
:1050680042EB0303FB62D7E90A23D7E92C01FBF7DC
:10507800A7F802460B460D4BA3FB02135B096421FC
:1050880001FB03F3D31ADB003233084AA2FB0323E4
:105098005B0903F00702D7F8F4301B6822449A60D2
:1050A80006E100BF00100140001401401F85EB51CC
:1050B800D7F8FC300022C7F8A030C7F8A420D7E9F9
:1050C800288942464B46911839625B417B62D7E991
:1050D800082341465418494643EB01054FF00002A6
:1050E8004FF00003EB0043EA5473E20014461D46F8
:1050F8004346E318C7F898304B4645EB0303C7F817
:105108009C30D7F8F4305B680022C7F89030C7F8B5
:1051180094204FF000024FF00003D7E924452946B8
:105128008B00214643EA917321468A00D7E926017C
:10513800FBF746F802460B46604BA3FB02235B09CC
:105148001C01D7F8FC300022C7F88830C7F88C203B
:10515800D7E9228942464B469118B9615B41FB6108
:10516800D7E9062341465118396149464B417B61CD
:105178004FF000024FF00003D7E904AB5946CB00CB
:10518800514643EA51735146CA0010461946034630
:1051980042469B18C7F880304B460A4642EB030349
:1051A800C7F88430D7F8F4305B680022BB67FA6729
:1051B8004FF000024FF00003D7E91E8949468B00E3
:1051C800414643EA917341468A00D7E92001FAF73C
:1051D800F7FF02460B461146384BA3FB01235B0938
:1051E800642202FB03F3CB1A1B013233334AA2FBBE
:1051F80003235B0903F0F0031C44D7F8FC300022BA
:105208003B677A67D7E91C8942464B469118B960D3
:105218005B41FB60D7E90223414651183960494692
:105228004B417B604FF000024FF00003D7E900AB21
:105238005946CB00514643EA51735146CA001046BD
:105248001946034642469B18BB664B460A4642EB44
:105258000303FB66D7F8F4305B6800223B667A6686
:105268004FF000024FF00003D7E9188949468B0038
:10527800414643EA917341468A00D7E91A01FAF791
:105288009FFF02460B460D4BA3FB02135B096421EB
:1052980001FB03F3D31A1B013233084AA2FB032391
:1052A8005B0903F00F02D7F8F4301B6822449A60B8
:1052B80000BF07F58077BD46BDE8B08F1F85EB516D
:1052C80084B080B584B000AF786007F11C0080E836
:1052D8000E0097F82130012B23D17B689B6B23F4B8
:1052E80080327B689A637B68DB6823F4840323F04D
:1052F80040037A68D3607B68DB6823F440127B68DC
:10530800DA6097F82830012B05D17B68DB6843F415
:1053180080127B68DA60786801F0E8FA0346FB736C
:105328001BE07B68DB6843F040027B68DA607868E2
:1053380001F0DCFA0346FB7397F82530002B06D101
:105348007B689B6B43F480327B689A6305E07B68DB
:105358009B6B23F480327B689A63BB7F012B0BD154
:105368007B689B6843F006027B689A607B689B6851
:1053780043F020027B689A60FB7B18461037BD46D5
:10538800BDE8804004B0704780B487B000AFF860D3
:10539800B9601346FB71FB79022B65D1BB68414AA2
:1053A800934206D9BB68404A934202D20F237B61DD
:1053B80062E0BB683C4A934206D3BB683B4A9342CF
:1053C80002D20E237B6157E0BB68384A934206D36A
:1053D800BB68374A934202D20D237B614CE0BB681D
:1053E800334A934206D3BB68324A934202D80C230D
:1053F8007B6141E0BB682F4A934206D9BB682E4ABD
:10540800934202D80B237B6136E0BB682A4A934259
:1054180006D9BB68294A934202D80A237B612BE04C
:10542800BB68264A934206D9BB68254A934202D2F2
:1054380009237B6120E0BB68214A934206D3BB68FD
:10544800204A934202D808237B6115E0BB681D4AB5
:10545800934206D9BB681C4A934202D207237B6158
:105468000AE006237B6107E0FB79002B02D10923C0
:105478007B6101E009237B61FB68DB6823F47052E0
:10548800FB68DA60FB68DA687B699B0203F4705397
:105498001A43FB68DA60002318461C37BD465DF8DE
:1054A800047B7047BFACD800C0E1E4000024F400DE
:1054B800807306019F491A01FF2C31013FA44C015A
:1054C80000366E011FABA6010048E80180B483B026
:1054D80000AF78607B689B6843F001027B689A6044
:1054E800002318460C37BD465DF8047B704780B42E
:1054F80083B000AF78607B689B6823F001027B680B
:105508009A60002318460C37BD465DF8047B704747
:1055180080B584B000AF78600B46FB700023FB6059
:105528007B68DB6823F0C0427B68DA60FB78012B7C
:1055380015D17B68DB6843F000527B68DA600A208B
:10554800FBF7FEFDFB680A33FB60786801F03FF962
:105558000346012B1ED0FB68C72BF0D91AE0FB7855
:10556800002B15D17B68DB6843F080427B68DA60EA
:105578000A20FBF7E5FDFB680A33FB60786801F059
:1055880026F90346002B05D0FB68C72BF0D901E0AC
:10559800012305E0FB68C82B01D1012300E00023AB
:1055A80018461037BD4680BD84B080B586B000AFC0
:1055B800786007F1240080E80E000023FB757B6803
:1055C800FB6000233B6109E07A683B6940339B003C
:1055D800134400225A603B6901333B613B690E2B3F
:1055E800F2D997F82E30002B1CD1FB6803F5006325
:1055F8005B68FA6802F5006243F0020353607B6857
:105608009B6B43F400127B689A637B689B6B23F463
:1056180000227B689A637B689B6B23F480227B68FB
:105628009A630BE07B689B6B23F400127B689A6398
:105638007B689B6B43F400227B689A63FB6803F5E5
:1056480060631A460023136097F82930012B0DD1A7
:1056580097F82730002B04D10021786800F068F90A
:1056680008E00121786800F063F903E00321786815
:1056780000F05EF91021786800F0FAF80346002B74
:1056880001D00123FB75786800F024F90346002B4C
:1056980001D00123FB75FB6803F500631A4600235C
:1056A8001361FB6803F500631A4600235361FB6826
:1056B80003F500631A460023D36100233B6143E0EE
:1056C8003B695A01FB68134403F510631B6803F038
:1056D8000043B3F1004F18D13B69002B0AD13B6955
:1056E8005A01FB68134403F510631A464FF0006330
:1056F800136013E03B695A01FB68134403F5106318
:105708001A464FF09043136008E03B695A01FB6862
:10571800134403F510631A46002313603B695A01CA
:10572800FB68134403F510631A46002313613B69B1
:105738005A01FB68134403F510631A464FF67F338A
:1057480093603B6901333B6197F824301A463B6903
:105758009342B5D300233B6143E03B695A01FB68A0
:10576800134403F530631B6803F00043B3F1004FA3
:1057780018D13B69002B0AD13B695A01FB681344D5
:1057880003F530631A464FF00063136013E03B697A
:105798005A01FB68134403F530631A464FF09043EF
:1057A800136008E03B695A01FB68134403F5306352
:1057B8001A46002313603B695A01FB68134403F53A
:1057C80030631A46002313613B695A01FB6813448E
:1057D80003F530631A464FF67F3393603B69013314
:1057E8003B6197F824301A463B699342B5D3FB686E
:1057F80003F500631B69FA6802F5006223F48073FD
:1058080013617B6800229A617B686FF080425A615D
:1058180097F82630002B05D17B689B6943F010026E
:105828007B689A617B689A69104B13437A68936125
:1058380097F82A30002B05D07B689B6943F0080253
:105848007B689A6197F82E30012B07D17B689B699A
:1058580043F0804343F004037A689361FB7D184664
:105868001837BD46BDE8804004B0704700383C801A
:1058780080B485B000AF786039600023FB60FB68B6
:105888000133FB60FB68B3F1706F01D903231BE0A0
:105898007B681B69002BF2DA0023FB603B689B01E5
:1058A80043F020027B681A61FB680133FB60FB68E8
:1058B800B3F1706F01D9032306E07B681B6903F01D
:1058C8002003202BF0D0002318461437BD465DF87E
:1058D800047B704780B485B000AF78600023FB601C
:1058E800FB680133FB60FB68B3F1706F01D90323D8
:1058F80018E07B681B69002BF2DA0023FB607B68E9
:1059080010221A61FB680133FB60FB68B3F1706F0A
:1059180001D9032306E07B681B6903F01003102BF1
:10592800F0D0002318461437BD465DF8047B704755
:1059380080B485B000AF78600B46FB707B68FB6075
:10594800FB6803F500631A68FB78F96801F50061E4
:1059580013430B60002318461437BD465DF8047BDB
:10596800704780B487B000AF78607B683B613B6963
:1059780003F500639B6803F00603FB60FB68002BDC
:1059880002D10023FB750AE0FB68022B02D0FB68FA
:10599800062B02D10223FB7501E00F23FB75FB7D6B
:1059A80018461C37BD465DF8047B704780B485B047
:1059B80000AF786039607B68FB603B681B78BB6030
:1059C8003B685B78012B3AD1FB6803F50063DA6921
:1059D8003B681B7803F00F03012101FA03F39BB224
:1059E800F96801F500611343CB61BB685A01FB6894
:1059F800134403F510631B6803F40043002B55D1CF
:105A0800BB685A01FB68134403F510631A683B68C6
:105A18009B68C3F30A013B681B799B041943BB6865
:105A28009B050B431343BA685101FA680A4402F50F
:105A3800106243F0805343F40043136036E0FB6880
:105A480003F50063DA693B681B7803F00F03012153
:105A580001FA03F31B04F96801F500611343CB61F4
:105A6800BB685A01FB68134403F530631B6803F4F1
:105A78000043002B1AD1BB685A01FB68134403F595
:105A880030631A683B689B68C3F30A013B681B795B
:105A98009B040B431343BA685101FA680A4402F5A0
:105AA800306243F0805343F40043136000231846E8
:105AB8001437BD465DF8047B7047000080B485B09C
:105AC80000AF786039607B68FB603B681B78BB601F
